S00F000061726475696E6F2E7372656323
S11300000C946D000C9495000C9495000C94950040
S11300100C9495000C9495000C9495000C94130684
S11300200C9495000C9495000C9495000C949500F8
S11300300C9495000C9495000C9495000C949500E8
S11300400C9491070C9495000C94120A0C94440A95
S11300500C9495000C9495000C9495000C949500C8
S11300600C9495000C949500250C290CF50BF80BB9
S1130070FC0B000C030C070C0A0C0D0C100C140CDC
S1130080180C1C0C1F0C00000008000201000003E7
S11300900407000000000000000001020408102012
S11300A04080010204081020010204081020040406
S11300B0040404040404020202020202030303030C
S11300C0030300000000250028002B0000000000AE
S11300D0240027002A000301740A11241FBECFEF55
S11300E0D8E0DEBFCDBF12E0A0E0B1E0E8EDF2E27F
S11300F002C005900D92A23BB107D9F723E0A2EB11
S1130100B2E001C01D92AA3DB207E1F710E0CAEDCA
S1130110D0E004C02297FE010E946611C63DD107BB
S1130120C9F70E94F2000C946A110C9400002F92FB
S11301303F924F925F926F927F928F929F92AF9273
S1130140BF92CF92DF92EF92FF920F931F93CF93C0
S1130150DF93FC018DB79EB781939083FB010995D2
S11301600E940107FC01819190818DBF9EBFDF91A8
S1130170CF911F910F91FF90EF90DF90CF90BF90A0
S1130180AF909F908F907F906F905F904F903F9033
S11301902F90089583E08093B10082E08093B000B3
S11301A09CE79093B30080937000089526E040E8A4
S11301B055E260E070E082ED92E00E9444096AE654
S11301C071E082ED92E00E94FF098FE00E941E041C
S11301D0882331F06BE871E082ED92E00E94FF0920
S11301E00C94CA000E9411060E9426080E94D600A0
S11301F081E00E9467048EE898E0892B19F00E9440
S11302008E08FDCFFFCF69E088EB92E00C94F30DEC
S11302101F920F920FB60F9211242F933F934F9377
S11302205F936F937F938F939F93AF93BF93EF935A
S1130230FF938091220190912301049739F480E087
S11302400E94D40510922301109222018091220170
S11302509091230101969093230180932201FF91B1
S1130260EF91BF91AF919F918F917F916F915F912A
S11302704F913F912F910F900FBE0F901F901895A3
S11302800F931F93CF93DF93CDB7DEB72D970FB6A0
S1130290F894DEBF0FBECDBF8E010F5F1F4F88E005
S11302A0F80111928A95E9F7A801BE01635F7F4FB7
S11302B0CE0109960E9433048D85882309F4BAC0BF
S11302C089859A85AB85BC85803B9105A105B105DF
S11302D009F465C020F5803A9105A105B10509F43A
S11302E045C0813A9105A105B105F1F689819A814C
S11302F0AB81BC818093C5039093C603A093C703CD
S1130300B093C8038D819E81AF81B885809391039A
S113031090939203A0939303B0939403C5CF823B2D
S11303209105A105B10509F46CC008F451C0803CE5
S11303309105A105B10509F0B7CF89819A81AB81F7
S1130340BC818093950390939603A0939703B093F5
S113035098038D819E81AF81B8858093A303909388
S1130360A403A093A503B093A6039ECF89819A8189
S11303709093BC038093BB038B819C8190939A03DD
S1130380809399038D819E81AF81B8858093AF035B
S11303909093B003A093B103B093B20385CF898146
S11303A09A81AB81BC8180939B0390939C03A0931F
S11303B09D03B0939E038D819E81AF81B885809308
S11303C0C1039093C203A093C303B093C4036CCF3F
S11303D089819A81AB81BC818093A7039093A80300
S11303E0A093A903B093AA038D819E81AF81B885A0
S11303F080938D0390938E03A0938F03B093900307
S113040053CF89819A81AB81BC818093CD03909332
S1130410CE03A093CF03B093D0038D819E81AF818F
S1130420B8858093D1039093D203A093D303B09360
S1130430D4033ACF0E943A042D960FB6F894DEBF47
S11304400FBECDBFDF91CF911F910F910895CF9231
S1130450DF92EF92FF92CF93DF93CDB7DEB7289769
S11304600FB6F894DEBF0FBECDBF6091BB03709191
S1130470BC03882777FD8095982F0E948E1020E07A
S113048030E040E05FE30E943E1118160CF051C0CA
S1130490C090AF03D090B003E090B103F090B203EA
S11304A020E030E047EC52E4C701B6010E9420107E
S11304B087FF05C082E490E6A5E6BEE30EC020E017
S11304C030E048EC52E4C701B6010E94201018162F
S11304D06CF086E696E6A6E6BEE3809391039093DD
S11304E09203A0939303B09394032BC026E636E6BD
S11304F049EC52E4C701B6010E94201018162CF0F2
S113050087E896E1A9E5BEE3E8CF2DEC3CEC49ECA5
S113051052E4C701B6010E94201018162CF085E899
S11305209BEEA1E5BEE3D9CF8FEC97EFA3E5BEE345
S1130530D4CF1092910310929203109293031092CD
S113054094038091910390919203A0919303B091AD
S1130550940389839A83AB83BC838091C90390916C
S1130560CA03A091CB03B091CC038D839E83AF8348
S1130570B8879E012F5F3F4F48E065EA70E080E056
S113058090E00E9423040E943A0428960FB6F8943F
S1130590DEBF0FBECDBFDF91CF91FF90EF90DF9014
S11305A0CF900895CF92DF92EF92FF922091240191
S11305B03091250140912601509127010E94241079
S11305C06B017C016093B7037093B8038093B90304
S11305D09093BA0320E030E0A9010E943E1118165E
S11305E07CF520E030E040E85FE3C701B6010E94FB
S11305F03E11181664F480E090E0A0E8BFE3809315
S1130600B7039093B803A093B903B093BA0380914E
S1130610B7039091B803A091B903B091BA03809342
S11306209F039093A003A093A103B093A2031092FD
S1130630AB031092AC031092AD031092AE0338C01A
S113064020E030E0A901C701B6010E94201087FF15
S11306502FC020E030E040E85FEBC701B6010E9404
S1130660201087FF0CC080E090E0A0E8BFEB8093EF
S1130670B7039093B803A093B903B093BA038091DE
S1130680B7039091B803A091B903B091BA03B058DD
S11306908093AB039093AC03A093AD03B093AE03EC
S11306A010929F031092A0031092A1031092A20330
S11306B0FF90EF90DF90CF900895CF92DF92EF926A
S11306C0FF92CF93DF93CDB7DEB728970FB6F89498
S11306D0DEBF0FBECDBF6091990370919A03882746
S11306E077FD8095982F0E948E1020E030E040E046
S11306F05FE30E943E1118160CF05FC0C090A70380
S1130700D090A803E090A903F090AA0320E030E081
S113071040E650E4C701B6010E94201087FF19C0CB
S11307202091C1033091C2034091C3035091C4038B
S113073060919B0370919C0380919D0390919E0313
S11307400E94BB0F26E933E44BE85CE30E94BB0F35
S113075031C020E030E040ED50E4C701B6010E9412
S113076020102091C1033091C2034091C3035091E2
S1130770C40318167CF060919B0370919C038091D4
S11307809D0390919E030E94BB0F2FE832EC45E736
S11307905CE30EC060919B0370919C0380919D0368
S11307A090919E030E94BB0F2FE632E143E05DE38C
S11307B00E94BC0F0E94D20210C01092AB03109290
S11307C0AC031092AD031092AE0310929F031092EB
S11307D0A0031092A1031092A20380919F03909111
S11307E0A003A091A103B091A20389839A83AB8350
S11307F0BC838091AB039091AC03A091AD03B09105
S1130800AE038D839E83AF83B8879E012F5F3F4FD6
S113081048E065EB70E080E090E00E9423040E94D1
S11308203A0428960FB6F894DEBF0FBECDBFDF9111
S1130830CF91FF90EF90DF90CF900895682F88EBD1
S113084092E00C94010EEF92FF920F937901042F22
S113085020E0AB01BC0188EB92E00E94830E0F9173
S1130860FF90EF9008959A01AB01BC0188EB92E0F0
S11308700C94B30ECF93CFB7F89480911B019927B2
S113088087FD9095FC01EE5FFE4F2FEF2083880FCC
S1130890991F880F991F8D589C4F0E94B200CFBF9B
S11308A080E0CF91089580911B01992787FD909551
S11308B0FC01EE0FFF1FEC59FE4F60817181880F20
S11308C0991F880F991F8D589C4F0C949700EF9295
S11308D0FF920F931F93CF93DF939091D5039111C0
S11308E057C0F89480938C0391E09093D5038230A1
S11308F028F00E94D3048F3F91F547C090E0EC01AB
S1130900CC0FDD1FC80FD91FC25DDE4FF99000E088
S113091010E0EE24E3940F1560F788819981009725
S113092029F0FC01E00FF11F808101C08FEFE82F57
S1130930F0E0DF01A85DBE4F9C91DF01A55DBE4FD5
S11309406C91EE0FFF1FEE0FFF1FE158FC4FE0828A
S1130950918361500E94EA040F5F1F4FDCCF9927F7
S113096087FD9095FC01E25AFE4F2091B702308139
S1130970232B2093B702FC01E15EFE4F10820E94FC
S113098019070E945A0687FFFCCF789480E004C0C0
S11309908FB7F8948FBF87E0DF91CF911F910F91AC
S11309A0FF90EF900895E091B602F0E0EF55FE4F0E
S11309B0E081EF3F69F0FF27E7FDF095ED5EFE4F24
S11309C0E081FF27E7FDF095E059FC4F8081089511
S11309D08FEF089544E0849F90011124F901E75BAF
S11309E0FE4FE081F0E0EE0FFF1FEF5FFE4F9081BE
S11309F09F3F11F480832DC074E0979FD001112490
S1130A00A158BC4F12964C911297641728F4808316
S1130A10461B12964C931DC074E0979FA0011124AD
S1130A20FA01E158FC4F9281691B93819F3F69F061
S1130A3074E0979FF0011124E158FC4FDF011296F6
S1130A407281671748F7761B7C93FA01E158FC4FD3
S1130A508383F901E158FC4F628393830895FF92E5
S1130A600F931F93CF93DF93A82FB0E09D01220F24
S1130A70331FF901EF5FFE4F1081F901E050FF4F82
S1130A8080818F5F8083A20FB31FA85ABE4F9C91B1
S1130A90981708F410821F3F09F480C044E0149FA3
S1130AA0F0011124E158FC4F8281811175C0E12FBE
S1130AB044E0E49FC0011124FC01E158FC4FE381B0
S1130AC0EF3F51F044E0E49FD0011124A158BC4F02
S1130AD012964C91442361F3DC01A158BC4F4FEFB3
S1130AE013964C93D901AF5FBE4FEC93EF3F49F09F
S1130AF084E0E89FF0011124E158FC4F8281815089
S1130B00828306E022E0F22E44E0149FE0011124E7
S1130B10FE01E75BFE4F82819381892B61F5A18100
S1130B20B0E0AB5ABE4FEC910E9FF0011124E95C8A
S1130B30FE4F309701F180819181009739F003973E
S1130B40D1F40380F481E02D099515C08281E82F4A
S1130B50FF27E7FDF095DF01A85FBE4F9C91992325
S1130B6051F091509C93E15EFE4F9081933009F4D3
S1130B70F0820E945A07FE01E158FC4FC381618153
S1130B80662329F06150812F0E94EA0401C010827B
S1130B90CF3F21F01C2FB8CF81508283DF91CF91BA
S1130BA01F910F91FF900895CF93DF93DFB7F894CF
S1130BB00E942F058091D60381112CC0C0911B0186
S1130BC00E94D3048F3F31F13091B702992787FDFA
S1130BD09095DC01AF59BE4F2C913217D8F4CF3F1A
S1130BE041F0EC2FFF27E7FDF095E15EFE4F22E098
S1130BF02083FC01E25AFE4F2081232B2093B7026D
S1130C00FC01E15EFE4F10820E9419070E945A0601
S1130C1087FFFCCFDFBF80E0DF91CF910895F89488
S1130C20FFCFEEE108958F939F9388E091E00E94B7
S1130C301C069F918F9108951F920F920FB60F92E9
S1130C4011242F933F934F935F936F937F93AF93AD
S1130C50BF93EF93FF93F8942091D6032F5F2093D3
S1130C60D6037894FC010995F8940E94FB068091C0
S1130C70D60381508093D603882389F0FF91EF91A6
S1130C80BF91AF917F916F915F914F913F912F9160
S1130C900F900FBE0F901F90789408950BC00E9480
S1130CA0CF068091D70387FDE9CF0E945A0687FFBC
S1130CB0FCCFE4CF78940E945304F8940E94630616
S1130CC08091D7030895CF9340911B011092D803CC
S1130CD0242F332727FD3095F901E85FFE4F9081DB
S1130CE09F5F9083F901EE5FFE4F8081F901E55A21
S1130CF0FE4F5081F901E15EFE4F951302C093E06F
S1130D0003C04817E1F392E09083F901E25AFE4FE1
S1130D10408140959091B70294239093B702F901D2
S1130D20E45EFE4FC081C0931B018F3F69F0E82F42
S1130D30FF27E7FDF095E15EFE4F9081933011F4BB
S1130D4092E090830E945A070E94D3048F3F59F483
S1130D50CF3F39F0EC2FFF27E7FDF095E15EFE4F22
S1130D6010828FEF18C02091B702992787FD9095C4
S1130D70DC01AF59BE4F3C91231760F7FC01E15EE3
S1130D80FE4F1082FC01E25AFE4F8081822B809339
S1130D90B7020E9419078093D703CF9108950E9448
S1130DA0D304E0911B018F3F11F12091B7029927E1
S1130DB087FD9095DC01AF59BE4F3C912317B8F4E1
S1130DC0EF3F39F0FF27E7FDF095E15EFE4F32E09B
S1130DD03083FC01E15EFE4F1082FC01E25AFE4FBB
S1130DE08081822B8093B7020E94190701C08FEF84
S1130DF08093D70308958091D80381111092D8036A
S1130E000895F89480911B01992787FD9095FC0122
S1130E10E25AFE4F308131502091B70223232093B0
S1130E20B702880F991F880F991F8D589C4F0C94F7
S1130E30B200CF93DF934091B602E42FF0E0EF5578
S1130E40FE4F5081252F332727FD3095D901AD5E04
S1130E50BE4F6C91E62FFF27E7FDF095EF01C059D7
S1130E60DC4F8881EB5FFE4F90819C937091B202BE
S1130E7070836093B2029F3F79F4F901E55FFE4FFE
S1130E80908321E030E0052E01C0220F0A94EAF796
S1130E90209524232093B602E82FFF27E7FDF09541
S1130EA0E45EFE4F90911B01908380931B01DF91C0
S1130EB0CF910895282F332727FD3095F901ED545C
S1130EC0FD4F90816091B202462F552747FD509502
S1130ED0FA01EB5FFE4F70817093B202DA01A05900
S1130EE0BC4F8C938FEF8083892F90E0DC01A55F4A
S1130EF0BE4FEC91EF3F69F4F901EF59FE4F409179
S1130F00B6022081422B4093B602FC01ED5EFE4FF7
S1130F1005C0FF27E7FDF095EB5FFE4F60836C9300
S1130F2008951F920F920FB60F9211242F933F939F
S1130F308F939F93AF93BF938091CA029091CB02FA
S1130F40A091CC02B091CD023091C90223E0230FCD
S1130F502D3720F40196A11DB11D05C026E8230FED
S1130F600296A11DB11D2093C9028093CA029093D9
S1130F70CB02A093CC02B093CD028091CE0290918B
S1130F80CF02A091D002B091D1020196A11DB11D52
S1130F908093CE029093CF02A093D002B093D1025B
S1130FA0BF91AF919F918F913F912F910F900FBE61
S1130FB00F901F9018953FB7F8948091CE029091AE
S1130FC0CF02A091D002B091D10226B5A89B05C052
S1130FD02F3F19F00196A11DB11D3FBF6627782F41
S1130FE0892F9A2F620F711D811D911D42E0660F9A
S1130FF0771F881F991F4A95D1F70895CF92DF92E2
S1131000EF92FF92CF93DF936B017C010E94DB0789
S1131010EB01C114D104E104F10489F00E94110A26
S11310200E94DB076C1B7D0B683E734090F381E0EC
S1131030C81AD108E108F108C851DC4FEACFDF91A2
S1131040CF91FF90EF90DF90CF900895789484B57E
S1131050826084BD84B5816084BD85B5826085BDB0
S113106085B5816085BDEEE6F0E080818160808396
S1131070E1E8F0E010828081826080838081816079
S11310808083E0E8F0E0808181608083E1EBF0E040
S1131090808184608083E0EBF0E0808181608083E4
S11310A0EAE7F0E0808184608083808182608083CD
S11310B08081816080838081806880831092C100F8
S11310C00895FC01818D228D90E0805C9F4F821BEE
S11310D091098F7399270895FC01918D828D98173A
S11310E031F0828DE80FF11D858D90E008958FEF2A
S11310F09FEF0895FC01918D828D981761F0828D88
S1131100DF01A80FB11D5D968C91928D9F5F9F7337
S1131110928F90E008958FEF9FEF08958AE69AE00A
S1131120892B49F080E090E0892B29F00E946A0A1B
S113113081110C9400000895FC01848DDF01A80F37
S1131140B11DA35ABF4F2C91848D90E001968F73EB
S11311509927848FA689B7892C93A089B1898C910A
S113116080648C93938D848D981306C00288F389D0
S1131170E02D80818F7D80830895CF93DF93EC01F0
S1131180888D8823C9F0EA89FB89808185FD05C0A3
S1131190A889B9898C9186FD0FC00FB607FCF5CFDD
S11311A0808185FFF2CFA889B9898C9185FFEDCF25
S11311B0CE010E949C08E7CFDF91CF910895CF9292
S11311C0DF92FF920F931F93CF93DF931F92CDB7BC
S11311D0DEB76C01DC015B969C915B975C968C910D
S11311E05C97981307C05096ED91FC9151978081BC
S11311F085FD32C0F601038D10E00F5F1F4F0F73A2
S11312001127F02EF601848DF81211C00FB607FCD9
S1131210F9CFD6015096ED91FC915197808185FFCD
S1131220F1CFC60169830E949C086981EBCF838D4D
S1131230E80FF11DE35AFF4F6083D6015B960C93D0
S11312405B975296ED91FC915397808180628083E5
S113125081E058968C930DC0D6015696ED91FC9181
S1131260579760835096ED91FC91519780818064EB
S1131270808381E090E00F90DF91CF911F910F91D7
S1131280FF90DF90CF900895BF92CF92DF92EF92BC
S1131290FF92CF93DF93EC016A017B01B22EE889C0
S11312A0F98982E08083411581EE58076105710553
S11312B0A1F060E079E08DE390E0A70196010E943F
S11312C042112150310941095109569547953795E5
S11312D02795211580E1380798F0E889F98910826B
S11312E060E874E88EE190E0A70196010E94421143
S11312F0215031094109510956954795379527954C
S1131300EC85FD853083EE85FF852083188EEC897E
S1131310FD89B082EA89FB89808180618083EA89C2
S1131320FB89808188608083EA89FB898081806869
S11313308083EA89FB8980818F7D8083DF91CF91CF
S1131340FF90EF90DF90CF90BF900895CF92DF92FF
S1131350EF92FF920F931F93CF93DF936C017A0167
S1131360EB01E60EF71E00E010E0CE15DF0561F09C
S11313706991D601ED91FC910190F081E02DC601B7
S11313800995080F191FF1CFC801DF91CF911F9163
S11313900F91FF90EF90DF90CF9008956115710544
S11313A081F0DB010D900020E9F7AD0141505109B6
S11313B0461B570BDC01ED91FC910280F381E02D7B
S11313C0099480E090E00895DC01ED91FC91019096
S11313D0F081E02D09940F931F93CF93DF93EC01D9
S11313E06DE00E94E4098C016AE0CE010E94E409E8
S11313F0800F911FDF91CF911F910F9108950F934B
S11314001F93CF93DF93EC010E94CE098C01CE0190
S11314100E94EB09800F911FDF91CF911F910F91D3
S1131420089508951F920F920FB60F9211242F93CF
S11314308F939F93EF93FF93E091E202F091E30285
S11314408081E091E802F091E90282FD12C090816E
S11314508091EB028F5F8F732091EC02821751F021
S1131460E091EB02F0E0EE52FD4F958F8093EB029A
S113147001C08081FF91EF919F918F912F910F90E7
S11314800FBE0F901F9018951F920F920FB60F92D8
S113149011242F933F934F935F936F937F938F9375
S11314A09F93AF93BF93EF93FF9382ED92E00E94DB
S11314B09C08FF91EF91BF91AF919F918F917F9184
S11314C06F915F914F913F912F910F900FBE0F90AD
S11314D01F90189582ED92E00E94610821E0892B0B
S11314E009F420E0822F08951092D5021092D402BC
S11314F088EE93E0A0E0B0E08093D6029093D70208
S1131500A093D802B093D90285EA92E09093D302D3
S11315108093D20285EC90E09093DF028093DE0208
S113152084EC90E09093E1028093E00280EC90E000
S11315309093E3028093E20281EC90E09093E502C1
S11315408093E40282EC90E09093E7028093E602B9
S113155086EC90E09093E9028093E8021092EB020B
S11315601092EC021092ED021092EE0208958EBDDC
S113157000000DB407FEFDCF8EB50895CF93DF9321
S1131580EC0160E088890E94850F80EC0E94B70A14
S113159061E088890E94850F6AE070E080E090E055
S11315A0DF91CF910C94FE071F93CF93DF93EC014F
S11315B0162F60E088890E94850F83E00E94B70A95
S11315C0812F0E94B70A80E00E94B70A182F61E0B9
S11315D088890E94850F812FDF91CF911F910895F3
S11315E0CF92DF92EF92FF920F931F93CF93DF93EB
S11315F000D0CDB7DEB78C01F62EE22E60E0FC0100
S1131600808949835A830E94850F83E00E94B70A28
S11316108F2D0E94B70A4981C42E5A81D52EF12CF0
S1131620FE1459F0F8E0FF1641F080E00E94B70A7A
S1131630F60181936F01F394F3CF61E0F80180899F
S11316400F900F90DF91CF911F910F91FF90EF902A
S1131650DF90CF900C94850FEF92FF921F93CF935E
S1131660DF931F92CDB7DEB77C01162F60E0FC013B
S1131670808949830E94850F82E00E94B70A812FE6
S11316800E94B70A4981842F0E94B70A61E0F701DA
S113169080890F90DF91CF911F91FF90EF900C9470
S11316A0850FCF92DF92EF92FF920F931F93CF9308
S11316B0DF9300D0CDB7DEB78C01E62EF22E60E0CA
S11316C0FC01808949835A830E94850F82E00E942D
S11316D0B70A8E2D0E94B70A4981E42EC42E5A817E
S11316E0D52E8C2D8E198F1530F4F60181916F0152
S11316F00E94B70AF6CF61E0F80180890F900F903D
S1131700DF91CF911F910F91FF90EF90DF90CF90D9
S11317100C94850FEF92FF921F93CF93DF9300D029
S1131720CDB7DEB77C01162F60E0FC0180892A83E7
S113173049830E94850F85E00E94B70A812F0E9489
S1131740B70A4981842F0E94B70A2A81822F0E94F6
S1131750B70A61E0F70180890F900F90DF91CF9174
S11317601F91FF90EF900C94850F1F93CF93DF93FD
S1131770EC0160E088890E94850F80EA0E94B70A24
S113178080E00E94B70A182F61E088890E94850FC3
S1131790812FDF91CF911F9108951F93CF93DF93F2
S11317A0EC01162F262F40EE6FE00E948A0B6FE0AB
S11317B0CE010E94D40A982F907E81E0911301C03B
S11317C080E0DF91CF911F9108950F931F93CF93E2
S11317D0DF93EC01462F50E0FA013197EF30F10529
S11317E090F5EC5CFF4F0C94641117E80FEF02C006
S11317F015E801EF4FE030C017E00EEB49E02CC0D4
S113180017E80FEF02C017E80AEF47E025C017E812
S11318100FEF08C017E00DEA05C017E80AEF02C091
S113182016E800EF43E018C017E80AEF41E014C0DF
S113183015E801EF41E410C016E800EF02C012E819
S113184000ED40E009C081E016C017E80FEF4FE358
S113185003C017E80FEF4FE16AE2CE010E942C0BA0
S1131860402F69E2CE010E942C0B412F68E2CE0189
S11318700E942C0B80E0DF91CF911F910F9108956E
S11318801F93CF93DF93EC0110E340E0612FCE016F
S11318900E942C0B60E1610F40E0CE010E942C0BF2
S11318A060E2610F40E0CE010E942C0B1F5F1E33EB
S11318B061F740E060E6CE010E942C0B40E060E757
S11318C0CE01DF91CF911F910C942C0B0F931F939A
S11318D0CF93DF93EC01062F0E94BE0A60E8CE018D
S11318E00E94CD0B182F6AE070E080E090E01111A7
S11318F00CC00E94FE07602FCE010E94E50B8823D6
S113190039F06AE070E080E090E00E94FE0728C0B1
S11319106AE070E080E090E00E94FE07CE010E9441
S1131920400C43E06BE2CE010E942C0B24E044E621
S113193060E6CE010E948A0B20E040E660E7CE011B
S11319400E948A0B60E0CE010E94CD0BC82F882331
S1131950C1F26AE070E080E090E00E94FE071C2F74
S1131960812FDF91CF911F910F9108950F931F93B2
S1131970CF93DF9300D000D0CDB7DEB74130B1F4C0
S11319800C831B83890122273327502F5C71402F3E
S1131990437078E0579F400D112448604A8355E016
S11319A0169507955A95E1F709830DC0A80123E020
S11319B0569547952A95E1F749830295000F007ED5
S11319C00A831C821B8224E0AE014F5F5F4F0E949A
S11319D0510B0F900F900F900F90DF91CF911F91AB
S11319E00F910895EF92FF920F931F93CF93DF937C
S11319F000D000D0CDB7DEB77A018901FA01108298
S1131A00F901108211821282138224E0AE014F5F29
S1131A105F4F0E94F00A2A813981822F90E045E0CD
S1131A20959587954A95E1F7F8E03F9F800D911DC4
S1131A301124AA2797FDA095BA2FF80180839183DA
S1131A40A283B38323FF25C062E0880F991FAA1FD6
S1131A50BB1F6A95D1F72370820F911DA11DB11D83
S1131A60BA2FA92F982F88272B81820F911DA11D92
S1131A70B11DBA2FA92F982F88272C81820F911D71
S1131A80A11DB11D80839183A283B38381E0F701FB
S1131A9080830F900F900F900F90DF91CF911F9143
S1131AA00F91FF90EF900895FF920F931F93CF93A0
S1131AB0DF93EC01F62EAC014A5F5F4F65E06F0DDA
S1131AC02D810E94510B8E85813019F48D818064A3
S1131AD08D8364E06F0D4D81CE010E942C0B098132
S1131AE01A812B813C8148816F2DCE010E94B60C56
S1131AF0DF91CF911F910F91FF9008950F931F9342
S1131B00CF93DF93EC01162F9C012F5F3F4FAC0165
S1131B100E94F20C6FEF610FCE010E94D40A082FCD
S1131B2064E0610FCE010E94D40A282F8D8303FF45
S1131B3003C081E08E8701C01E862F702D83AE0105
S1131B404A5F5F4F65E0610FCE01DF91CF911F9136
S1131B500F910C94F00A615028E048E00C948A0B31
S1131B609F92AF92BF92CF92DF92EF92FF920F9328
S1131B701F93CF93DF9300D01F92CDB7DEB76C01D4
S1131B807B0180E3898380E48A8380E58B83FB0186
S1131B9010828E010F5F1F4F5E01F4E0AF0EB11C87
S1131BA0F80191908F01692DC6010E94D40A982FE3
S1131BB0987083FD04C09394F701908204C00A15C1
S1131BC01B0571F792E0892F0F900F900F90DF9112
S1131BD0CF911F910F91FF90EF90DF90CF90BF9026
S1131BE0AF909F900895CF93DF93EC01862F688B7D
S1131BF061E00E944C0F61E08889DF91CF910C94E1
S1131C00850FCF93DF9300D01F92CDB7DEB76B83E0
S1131C1089839A830E94FE0E6B8189819A810E9436
S1131C20660C91E0811101C090E0892F0F900F9014
S1131C300F90DF91CF910895EF92FF920F93CF937E
S1131C40DF93FC0120834183528363837483058380
S1131C50D70180E090E02D91EF01C80FD91F2E83AA
S1131C60019688309105B9F780E0DF91CF910F910B
S1131C70FF90EF900895EF92FF920F931F93CF93ED
S1131C80DF931F92CDB7DEB78C01E12CF12CBE019E
S1131C906F5F7F4FC8010E94B00D9FEFE91AF90AE8
S1131CA0823029F482E3E816F10489F723C092E331
S1131CB0E916F104F9F06981C8010E94540D6981A3
S1131CC0C8010E94AB0DE12CF12C8FEFE81AF80A41
S1131CD06981C8010E94D40A83FF06C092E3E91611
S1131CE0F10499F787E007C082E3E816F104D1F321
S1131CF080E001C086E00F90DF91CF911F910F919A
S1131D00FF90EF900895EF92FF920F93CF93DF939C
S1131D10EC010E941C0ECE01DF91CF910F91FF9038
S1131D20EF900C943B0ECF93DF93EC010E94B50B24
S1131D3080FF07C061E6CE010E947E0D20E041E0F5
S1131D4008C081FF0CC061E7CE010E947E0D20E037
S1131D5042E06CE2CE010E948A0B80E001C084E084
S1131D60DF91CF910895CF92DF92EF92FF920F937C
S1131D701F93CF93DF9300D0CDB7DEB76C017B0107
S1131D808A0129833A830E94930E29813A81811121
S1131D9028C0D60115969C911597F8019083119649
S1131DA04D915D916D917C911497D7014D935D9305
S1131DB06D937C931397F90120E030E0D6011596DA
S1131DC04C9150E02417350774F42830310559F04C
S1131DD0D601A20FB31F16969C9191932F5F3F4F8C
S1131DE0EDCFF80110820F900F90DF91CF911F91EA
S1131DF00F91FF90EF90DF90CF900895CF93CFB7DE
S1131E00F89480916F03811116C061E08AE00E940A
S1131E10850F61E08AE00E944C0F8CB580618CBD17
S1131E208CB580648CBD61E08DE00E944C0F61E054
S1131E308BE00E944C0F80916F038F5F80936F0340
S1131E40CFBFCF910895833081F028F4813099F089
S1131E508230A1F008958730A9F08830B9F0843039
S1131E60D1F4809180008F7D03C0809180008F77B2
S1131E7080938000089584B58F7702C084B58F7DE8
S1131E8084BD08958091B0008F7703C08091B00025
S1131E908F7D8093B0000895CF93DF9390E0FC0191
S1131EA0E656FF4F2491FC01E255FF4F84918823AD
S1131EB049F190E0880F991FFC01E453FF4FA5916D
S1131EC0B4918E539F4FFC01C591D4919FB761117A
S1131ED008C0F8948C91209582238C938881822366
S1131EE00AC0623051F4F8948C91322F30958323D8
S1131EF08C938881822B888304C0F8948C91822BE4
S1131F008C939FBFDF91CF9108950F931F93CF932D
S1131F10DF931F92CDB7DEB7282F30E0F901EA57DF
S1131F20FF4F8491F901E656FF4F1491F901E255F0
S1131F30FF4F04910023C9F0882321F069830E9494
S1131F40230F6981E02FF0E0EE0FFF1FEE53FF4FE8
S1131F50A591B4919FB7F8948C91611103C0109529
S1131F60812301C0812B8C939FBF0F90DF91CF9170
S1131F701F910F9108955058BB27AA270ED044C132
S1131F8035D130F03AD120F031F49F3F11F41EF4F2
S1131F902AC10EF4E095E7FB20C1E92F46D180F376
S1131FA0BA17620773078407950718F071F49EF552
S1131FB05EC10EF4E0950B2EBA2FA02D0B01B901D2
S1131FC090010C01CA01A0011124FF27591B99F0AB
S1131FD0593F50F4503E68F11A16F040A22F232FB7
S1131FE0342F4427585FF3CF469537952795A79507
S1131FF0F0405395C9F77EF41F16BA0B620B730BAE
S1132000840BBAF09150A1F0FF0FBB1F661F771F1E
S1132010881FC2F70EC0BA0F621F731F841F48F4D3
S1132020879577956795B795F7959E3F08F0B3CF59
S11320309395880F08F09927EE0F97958795089543
S1132040A8D008F481E008950CD0DEC0D6D040F0CA
S1132050CDD030F021F45F3F19F0BFC0511108C159
S1132060C2C0E3D098F39923C9F35523B1F3951B68
S1132070550BBB27AA2762177307840738F09F5FA5
S11320805F4F220F331F441FAA1FA9F333D00E2E14
S11320903AF0E0E830D091505040E695001CCAF781
S11320A029D0FE2F27D0660F771F881FBB1F261746
S11320B037074807AB07B0E809F0BB0B802DBF0119
S11320C0FF2793585F4F2AF09E3F510568F085C063
S11320D0CFC05F3FECF3983EDCF386957795679528
S11320E0B795F7959F5FC9F7880F911D96958795CA
S11320F097F90895E1E0660F771F881FBB1F6217E9
S113210073078407BA0720F0621B730B840BBA0BA6
S1132110EE1F88F7E0950895E89409C097FB3EF414
S113212090958095709561957F4F8F4F9F4F992320
S1132130A9F0F92F96E9BB279395F695879577959E
S11321406795B795F111F8CFFAF4BB0F11F460FF5E
S11321501BC06F5F7F4F8F4F9F4F16C0882311F0B6
S113216096E911C0772321F09EE8872F762F05C0CA
S1132170662371F096E8862F70E060E02AF09A9565
S1132180660F771F881FDAF7880F9695879597F95A
S11321900895990F0008550FAA0BE0E8FEEF1616F4
S11321A01706E807F907C0F012161306E407F50747
S11321B098F0621B730B840B950B39F40A2661F0BB
S11321C0232B242B252B21F408950A2609F4A1405E
S11321D0A6958FEF811D811D089597F99F6780E86B
S11321E070E060E008959FEF80EC089500240A9465
S11321F01616170618060906089500240A941216DE
S11322001306140605060895092E0394000C11F410
S1132210882352F0BB0F40F4BF2B11F460FF04C0BD
S11322206F5F7F4F8F4F9F4F089557FD9058440F16
S1132230551F59F05F3F71F04795880F97FB991F21
S113224061F09F3F79F087950895121613061406DE
S1132250551FF2CF4695F1DF08C01616170618066B
S1132260991FF1CF86957105610508940895E89446
S1132270BB2766277727CB0197F908958ADF08F4EF
S11322808FEF0895A1E21A2EAA1BBB1BFD010DC0FE
S1132290AA1FBB1FEE1FFF1FA217B307E407F50712
S11322A020F0A21BB30BE40BF50B661F771F881FEE
S11322B0991F1A9469F760957095809590959B0184
S11322C0AC01BD01CF010895EE0FFF1F0590F491FD
S10B22D0E02D0994F894FFCFFE
S11322D800FFFFFFFF0102FF010101FFFFFFFFFFF6
S11322E8FFFFFFFFFFFFFFFFFFFFFFFFFFFFFF03EE
S11322F80303010061A8BB3E0505010101010000BB
S1132308000334010001020000000000FF00000186
S11323180000FF0000020000FF00000000000100B0
S11323280000020000000102100101010101010185
S11323380101010127025D03400153657269616C63
S113234820436F6D6D756E69636174696F6E2045A6
S1132358737461626C69736865640043414E204913
S11323686E697469616C697A65204661696C656433
S113237800FF000101020202020303030303030333
S11323880304040404040404040404040404040402
S113239804050505050505050505050505050505E2
S11323A805050505050505050505050505050505D1
S11323B805060606060606060606060606060606B2
S11323C806060606060606060606060606060606A1
S11323D80606060606060606060606060606060691
S11323E80606060606060606060606060606060681
S11323F80607070707070707070707070707070762
S11324080707070707070707070707070707070750
S11324180707070707070707070707070707070740
S11324280707070707070707070707070707070730
S11324380707070707070707070707070707070720
S11324480707070707070707070707070707070710
S11324580707070707070707070707070707070700
S113246807070707070707070707070707070707F0
S11324780700000000DF08A60961087A086C08BD97
S1052488080046
S9030000FC
